:0A0000000C944D000C9400000C94C9
:10000A0000000C9400000C9400000C9400000C9466
:10001A0000000C9400000C9400000C9400000C9456
:10002A0000000C9400000C9400000C9400000C9446
:10003A0000000C9400000C9400000C9400000C9436
:10004A007C000C9400000C9400000C9400000C94AA
:10005A0000000C9400000C9400000C9400000C9416
:10006A0000000C9400000C9400000C9400000C9406
:10007A00000000000000000000007F6F537F337F04
:10008A007F7F080003007C00080000028400000053
:10009A00F894EE27EFBBF1E0F5BFE5BF8DE0A2E0F3
:1000AA00BB27ED938A95E9F780E094E0A0E0B1E000
:1000BA00ED930197E9F7ECE8F0E0859195910097C7
:1000CA0061F0A591B59105901590BF01F0010590D9
:1000DA000D920197E1F7FB01F0CFE0E0EEBBEFEF05
:1000EA00EDBFE4E0EEBFC0E0D2E00C9499000A92C2
:1000FA001A929A93AA93BA93EA93FA93EFB7EA9366
:10010A00ECE3E6BDA72DB82D1196E6E9F0E032D171
:10011A007E2E8F2EE991EFBFF991E991B991A991BC
:10012A009991199009901895E0E8E0936100E0E050
:10013A00E0936100E1B9E2B9EFEFE4B9E5B9E0E0D3
:10014A00E7B9E8B9EAB9EFEFEBB9E0E0E4BDE5E019
:10015A00E5BDECE3E6BDE0E0E7BDE8BDE093800085
:10016A00E0938100E0938500E0938400E0938700A8
:10017A00E0938600E0938900E0938800E0938B0087
:10018A00E0938A00E093B600E093B000E093B100F8
:10019A00E093B200E093B300E093B400E1E0E093AF
:1001AA006E00E0E0E0936F00E0937000E093690076
:1001BA00EDBBE0936800E093C100E093C900E0E87A
:1001CA00E0BFE0E0E0937B00E0937F00E0937A00F9
:1001DA00ECBDE093BC00789444243324EFEF5E2E08
:1001EA0069B0E42DF0E0309771F465FC02C0E1E0FB
:1001FA004E2E66FC02C0E5E04E2E67FC02C0E2E02D
:10020A004E2E54D049C0E130A0E0FA0779F465FCDB
:10021A0049D067FC02C0E2E04E2E66FC02C0E5E06F
:10022A004E2E64FC02C0E4E04E2E36C0E230A0E05E
:10023A00FA0731F434D064FC02C0E4E04E2E2CC03C
:10024A00E330A0E0FA0779F450D064FC02C0E4E09D
:10025A004E2E63FC07C0E2E04E2EEFEF5E2E99248D
:10026A00AA24332419C0E430A0E0FA0719F464FC84
:10027A00442412C0E530A0E0FA0771F466FC14D0F9
:10028A0065FC02C0E1E04E2E67FC02C0E2E04E2EA1
:10029A0064FC02C0E4E04E2E55B8A2CFFFCF09D0CD
:1002AA0024D00895E3E803C0E0E101C0EFEF5E2E39
:1002BA0008951A93E62DEE70F0E0F595E7951E2F56
:1002CA00F0E0E050FE4F508019910895E0E35E2E71
:1002DA00EBE4F0E07E168F061CF4E1E05E2A02C031
:1002EA00EEEF5E22E3E04E2E0895E32DF0E0309724
:1002FA0029F463FE02C0E1E03E2E24C0E130A0E012
:10030A00FA07A1F463FC03C033249924AA24072C16
:10031A00082821F4E1E0F0E09E0EAF1EE6E9F0E0E5
:10032A009E16AF0614F0E2E03E2E0CC0E230A0E0CA
:10033A00FA0741F4CBDF63FC05C03324E2E04E2E1A
:10034A009924AA240895F195E195F040089500248E
:10035A00112490E1AA0FBB1F001C111C0E1A1F0AC0
:10036A0018F40E0E1F1E01C0A1609A9599F7FD019F
:10037A00D0010895E894B7FF04C0B195A195B040A3
:10038A006894F7FDE0DFE3DFFD010EF4DCDF08959A
:00000001FF
